{
  "_format": "hh-sol-artifact-1",
  "contractName": "GeneratedNFT",
  "sourceName": "contracts/GeneratedNFT.sol",
  "abi": [
    {
      "inputs": [],
      "stateMutability": "nonpayable",
      "type": "constructor"
    },
    {
      "anonymous": false,
      "inputs": [
        {
          "indexed": true,
          "internalType": "address",
          "name": "owner",
          "type": "address"
        },
        {
          "indexed": true,
          "internalType": "address",
          "name": "approved",
          "type": "address"
        },
        {
          "indexed": true,
          "internalType": "uint256",
          "name": "tokenId",
          "type": "uint256"
        }
      ],
      "name": "Approval",
      "type": "event"
    },
    {
      "anonymous": false,
      "inputs": [
        {
          "indexed": true,
          "internalType": "address",
          "name": "owner",
          "type": "address"
        },
        {
          "indexed": true,
          "internalType": "address",
          "name": "operator",
          "type": "address"
        },
        {
          "indexed": false,
          "internalType": "bool",
          "name": "approved",
          "type": "bool"
        }
      ],
      "name": "ApprovalForAll",
      "type": "event"
    },
    {
      "anonymous": false,
      "inputs": [
        {
          "indexed": true,
          "internalType": "address",
          "name": "from",
          "type": "address"
        },
        {
          "indexed": true,
          "internalType": "address",
          "name": "to",
          "type": "address"
        },
        {
          "indexed": true,
          "internalType": "uint256",
          "name": "tokenId",
          "type": "uint256"
        }
      ],
      "name": "Transfer",
      "type": "event"
    },
    {
      "inputs": [
        {
          "internalType": "address",
          "name": "to",
          "type": "address"
        },
        {
          "internalType": "uint256",
          "name": "tokenId",
          "type": "uint256"
        }
      ],
      "name": "approve",
      "outputs": [],
      "stateMutability": "nonpayable",
      "type": "function"
    },
    {
      "inputs": [
        {
          "internalType": "address",
          "name": "owner",
          "type": "address"
        }
      ],
      "name": "balanceOf",
      "outputs": [
        {
          "internalType": "uint256",
          "name": "",
          "type": "uint256"
        }
      ],
      "stateMutability": "view",
      "type": "function"
    },
    {
      "inputs": [
        {
          "internalType": "uint256",
          "name": "tokenId",
          "type": "uint256"
        }
      ],
      "name": "getApproved",
      "outputs": [
        {
          "internalType": "address",
          "name": "",
          "type": "address"
        }
      ],
      "stateMutability": "view",
      "type": "function"
    },
    {
      "inputs": [
        {
          "internalType": "address",
          "name": "owner",
          "type": "address"
        },
        {
          "internalType": "address",
          "name": "operator",
          "type": "address"
        }
      ],
      "name": "isApprovedForAll",
      "outputs": [
        {
          "internalType": "bool",
          "name": "",
          "type": "bool"
        }
      ],
      "stateMutability": "view",
      "type": "function"
    },
    {
      "inputs": [
        {
          "internalType": "string",
          "name": "NFTMetadata",
          "type": "string"
        }
      ],
      "name": "makeGenerateNFT",
      "outputs": [],
      "stateMutability": "nonpayable",
      "type": "function"
    },
    {
      "inputs": [],
      "name": "name",
      "outputs": [
        {
          "internalType": "string",
          "name": "",
          "type": "string"
        }
      ],
      "stateMutability": "view",
      "type": "function"
    },
    {
      "inputs": [
        {
          "internalType": "uint256",
          "name": "tokenId",
          "type": "uint256"
        }
      ],
      "name": "ownerOf",
      "outputs": [
        {
          "internalType": "address",
          "name": "",
          "type": "address"
        }
      ],
      "stateMutability": "view",
      "type": "function"
    },
    {
      "inputs": [
        {
          "internalType": "address",
          "name": "from",
          "type": "address"
        },
        {
          "internalType": "address",
          "name": "to",
          "type": "address"
        },
        {
          "internalType": "uint256",
          "name": "tokenId",
          "type": "uint256"
        }
      ],
      "name": "safeTransferFrom",
      "outputs": [],
      "stateMutability": "nonpayable",
      "type": "function"
    },
    {
      "inputs": [
        {
          "internalType": "address",
          "name": "from",
          "type": "address"
        },
        {
          "internalType": "address",
          "name": "to",
          "type": "address"
        },
        {
          "internalType": "uint256",
          "name": "tokenId",
          "type": "uint256"
        },
        {
          "internalType": "bytes",
          "name": "_data",
          "type": "bytes"
        }
      ],
      "name": "safeTransferFrom",
      "outputs": [],
      "stateMutability": "nonpayable",
      "type": "function"
    },
    {
      "inputs": [
        {
          "internalType": "address",
          "name": "operator",
          "type": "address"
        },
        {
          "internalType": "bool",
          "name": "approved",
          "type": "bool"
        }
      ],
      "name": "setApprovalForAll",
      "outputs": [],
      "stateMutability": "nonpayable",
      "type": "function"
    },
    {
      "inputs": [
        {
          "internalType": "bytes4",
          "name": "interfaceId",
          "type": "bytes4"
        }
      ],
      "name": "supportsInterface",
      "outputs": [
        {
          "internalType": "bool",
          "name": "",
          "type": "bool"
        }
      ],
      "stateMutability": "view",
      "type": "function"
    },
    {
      "inputs": [],
      "name": "symbol",
      "outputs": [
        {
          "internalType": "string",
          "name": "",
          "type": "string"
        }
      ],
      "stateMutability": "view",
      "type": "function"
    },
    {
      "inputs": [
        {
          "internalType": "uint256",
          "name": "tokenId",
          "type": "uint256"
        }
      ],
      "name": "tokenURI",
      "outputs": [
        {
          "internalType": "string",
          "name": "",
          "type": "string"
        }
      ],
      "stateMutability": "view",
      "type": "function"
    },
    {
      "inputs": [
        {
          "internalType": "address",
          "name": "from",
          "type": "address"
        },
        {
          "internalType": "address",
          "name": "to",
          "type": "address"
        },
        {
          "internalType": "uint256",
          "name": "tokenId",
          "type": "uint256"
        }
      ],
      "name": "transferFrom",
      "outputs": [],
      "stateMutability": "nonpayable",
      "type": "function"
    }
  ],
  "bytecode": "0x60806040523480156200001157600080fd5b506040518060400160405280600d81526020017f47656e657261746564204e4654000000000000000000000000000000000000008152506040518060400160405280600581526020017f47454e4654000000000000000000000000000000000000000000000000000000815250816000908051906020019062000096929190620001cf565b508060019080519060200190620000af929190620001cf565b505050620000fd6040518060400160405280600b81526020017f46697273742074657374210000000000000000000000000000000000000000008152506200010360201b62000c9c1760201c565b620003ac565b620001a3816040516024016200011a9190620002c0565b6040516020818303038152906040527f41304fac000000000000000000000000000000000000000000000000000000007bffffffffffffffffffffffffffffffffffffffffffffffffffffffff19166020820180517bffffffffffffffffffffffffffffffffffffffffffffffffffffffff8381831617835250505050620001a660201b60201c565b50565b60008151905060006a636f6e736f6c652e6c6f679050602083016000808483855afa5050505050565b828054620001dd9062000336565b90600052602060002090601f0160209004810192826200020157600085556200024d565b82601f106200021c57805160ff19168380011785556200024d565b828001600101855582156200024d579182015b828111156200024c5782518255916020019190600101906200022f565b5b5090506200025c919062000260565b5090565b5b808211156200027b57600081600090555060010162000261565b5090565b60006200028c82620002e4565b620002988185620002ef565b9350620002aa81856020860162000300565b620002b5816200039b565b840191505092915050565b60006020820190508181036000830152620002dc81846200027f565b905092915050565b600081519050919050565b600082825260208201905092915050565b60005b838110156200032057808201518184015260208101905062000303565b8381111562000330576000848401525b50505050565b600060028204905060018216806200034f57607f821691505b602082108114156200036657620003656200036c565b5b50919050565b7f4e487b7100000000000000000000000000000000000000000000000000000000600052602260045260246000fd5b6000601f19601f8301169050919050565b612cb680620003bc6000396000f3fe608060405234801561001057600080fd5b50600436106100ea5760003560e01c80636352211e1161008c578063a22cb46511610066578063a22cb4651461025b578063b88d4fde14610277578063c87b56dd14610293578063e985e9c5146102c3576100ea565b80636352211e146101dd57806370a082311461020d57806395d89b411461023d576100ea565b8063095ea7b3116100c8578063095ea7b31461016d57806323b872dd1461018957806342842e0e146101a55780634a0ef382146101c1576100ea565b806301ffc9a7146100ef57806306fdde031461011f578063081812fc1461013d575b600080fd5b61010960048036038101906101049190611da6565b6102f3565b60405161011691906125ab565b60405180910390f35b6101276103d5565b60405161013491906125c6565b60405180910390f35b61015760048036038101906101529190611e39565b610467565b6040516101649190612544565b60405180910390f35b61018760048036038101906101829190611d6a565b6104ec565b005b6101a3600480360381019061019e9190611c64565b610604565b005b6101bf60048036038101906101ba9190611c64565b610664565b005b6101db60048036038101906101d69190611df8565b610684565b005b6101f760048036038101906101f29190611e39565b6106d7565b6040516102049190612544565b60405180910390f35b61022760048036038101906102229190611bff565b610789565b6040516102349190612826565b60405180910390f35b610245610841565b60405161025291906125c6565b60405180910390f35b61027560048036038101906102709190611d2e565b6108d3565b005b610291600480360381019061028c9190611cb3565b610a54565b005b6102ad60048036038101906102a89190611e39565b610ab6565b6040516102ba91906125c6565b60405180910390f35b6102dd60048036038101906102d89190611c28565b610c08565b6040516102ea91906125ab565b60405180910390f35b60007f80ac58cd000000000000000000000000000000000000000000000000000000007bffffffffffffffffffffffffffffffffffffffffffffffffffffffff1916827bffffffffffffffffffffffffffffffffffffffffffffffffffffffff191614806103be57507f5b5e139f000000000000000000000000000000000000000000000000000000007bffffffffffffffffffffffffffffffffffffffffffffffffffffffff1916827bffffffffffffffffffffffffffffffffffffffffffffffffffffffff1916145b806103ce57506103cd82610d35565b5b9050919050565b6060600080546103e490612a86565b80601f016020809104026020016040519081016040528092919081815260200182805461041090612a86565b801561045d5780601f106104325761010080835404028352916020019161045d565b820191906000526020600020905b81548152906001019060200180831161044057829003601f168201915b5050505050905090565b600061047282610d9f565b6104b1576040517f08c379a00000000000000000000000000000000000000000000000000000000081526004016104a890612786565b60405180910390fd5b6004600083815260200190815260200160002060009054906101000a900473ffffffffffffffffffffffffffffffffffffffff169050919050565b60006104f7826106d7565b90508073ffffffffffffffffffffffffffffffffffffffff168373ffffffffffffffffffffffffffffffffffffffff161415610568576040517f08c379a000000000000000000000000000000000000000000000000000000000815260040161055f906127e6565b60405180910390fd5b8073ffffffffffffffffffffffffffffffffffffffff16610587610e0b565b73ffffffffffffffffffffffffffffffffffffffff1614806105b657506105b5816105b0610e0b565b610c08565b5b6105f5576040517f08c379a00000000000000000000000000000000000000000000000000000000081526004016105ec906126c6565b60405180910390fd5b6105ff8383610e13565b505050565b61061561060f610e0b565b82610ecc565b610654576040517f08c379a000000000000000000000000000000000000000000000000000000000815260040161064b90612806565b60405180910390fd5b61065f838383610faa565b505050565b61067f83838360405180602001604052806000815250610a54565b505050565b60006106906007611206565b905061069c3382611214565b6106a68183611232565b6106c9604051806060016040528060258152602001612c5c6025913982336112a6565b6106d36007611345565b5050565b6000806002600084815260200190815260200160002060009054906101000a900473ffffffffffffffffffffffffffffffffffffffff169050600073ffffffffffffffffffffffffffffffffffffffff168173ffffffffffffffffffffffffffffffffffffffff161415610780576040517f08c379a000000000000000000000000000000000000000000000000000000000815260040161077790612706565b60405180910390fd5b80915050919050565b60008073ffffffffffffffffffffffffffffffffffffffff168273ffffffffffffffffffffffffffffffffffffffff1614156107fa576040517f08c379a00000000000000000000000000000000000000000000000000000000081526004016107f1906126e6565b60405180910390fd5b600360008373ffffffffffffffffffffffffffffffffffffffff1673ffffffffffffffffffffffffffffffffffffffff168152602001908152602001600020549050919050565b60606001805461085090612a86565b80601f016020809104026020016040519081016040528092919081815260200182805461087c90612a86565b80156108c95780601f1061089e576101008083540402835291602001916108c9565b820191906000526020600020905b8154815290600101906020018083116108ac57829003601f168201915b5050505050905090565b6108db610e0b565b73ffffffffffffffffffffffffffffffffffffffff168273ffffffffffffffffffffffffffffffffffffffff161415610949576040517f08c379a000000000000000000000000000000000000000000000000000000000815260040161094090612686565b60405180910390fd5b8060056000610956610e0b565b73ffffffffffffffffffffffffffffffffffffffff1673ffffffffffffffffffffffffffffffffffffffff16815260200190815260200160002060008473ffffffffffffffffffffffffffffffffffffffff1673ffffffffffffffffffffffffffffffffffffffff16815260200190815260200160002060006101000a81548160ff0219169083151502179055508173ffffffffffffffffffffffffffffffffffffffff16610a03610e0b565b73ffffffffffffffffffffffffffffffffffffffff167f17307eab39ab6107e8899845ad3d59bd9653f200f220920489ca2b5937696c3183604051610a4891906125ab565b60405180910390a35050565b610a65610a5f610e0b565b83610ecc565b610aa4576040517f08c379a0000000000000000000000000000000000000000000000000000000008152600401610a9b90612806565b60405180910390fd5b610ab08484848461135b565b50505050565b6060610ac182610d9f565b610b00576040517f08c379a0000000000000000000000000000000000000000000000000000000008152600401610af790612766565b60405180910390fd5b6000600660008481526020019081526020016000208054610b2090612a86565b80601f0160208091040260200160405190810160405280929190818152602001828054610b4c90612a86565b8015610b995780601f10610b6e57610100808354040283529160200191610b99565b820191906000526020600020905b815481529060010190602001808311610b7c57829003601f168201915b505050505090506000610baa6113b7565b9050600081511415610bc0578192505050610c03565b600082511115610bf5578082604051602001610bdd929190612520565b60405160208183030381529060405292505050610c03565b610bfe846113ce565b925050505b919050565b6000600560008473ffffffffffffffffffffffffffffffffffffffff1673ffffffffffffffffffffffffffffffffffffffff16815260200190815260200160002060008373ffffffffffffffffffffffffffffffffffffffff1673ffffffffffffffffffffffffffffffffffffffff16815260200190815260200160002060009054906101000a900460ff16905092915050565b610d3281604051602401610cb091906125c6565b6040516020818303038152906040527f41304fac000000000000000000000000000000000000000000000000000000007bffffffffffffffffffffffffffffffffffffffffffffffffffffffff19166020820180517bffffffffffffffffffffffffffffffffffffffffffffffffffffffff8381831617835250505050611475565b50565b60007f01ffc9a7000000000000000000000000000000000000000000000000000000007bffffffffffffffffffffffffffffffffffffffffffffffffffffffff1916827bffffffffffffffffffffffffffffffffffffffffffffffffffffffff1916149050919050565b60008073ffffffffffffffffffffffffffffffffffffffff166002600084815260200190815260200160002060009054906101000a900473ffffffffffffffffffffffffffffffffffffffff1673ffffffffffffffffffffffffffffffffffffffff1614159050919050565b600033905090565b816004600083815260200190815260200160002060006101000a81548173ffffffffffffffffffffffffffffffffffffffff021916908373ffffffffffffffffffffffffffffffffffffffff160217905550808273ffffffffffffffffffffffffffffffffffffffff16610e86836106d7565b73ffffffffffffffffffffffffffffffffffffffff167f8c5be1e5ebec7d5bd14f71427d1e84f3dd0314c0f7b2291e5b200ac8c7c3b92560405160405180910390a45050565b6000610ed782610d9f565b610f16576040517f08c379a0000000000000000000000000000000000000000000000000000000008152600401610f0d906126a6565b60405180910390fd5b6000610f21836106d7565b90508073ffffffffffffffffffffffffffffffffffffffff168473ffffffffffffffffffffffffffffffffffffffff161480610f9057508373ffffffffffffffffffffffffffffffffffffffff16610f7884610467565b73ffffffffffffffffffffffffffffffffffffffff16145b80610fa15750610fa08185610c08565b5b91505092915050565b8273ffffffffffffffffffffffffffffffffffffffff16610fca826106d7565b73ffffffffffffffffffffffffffffffffffffffff1614611020576040517f08c379a0000000000000000000000000000000000000000000000000000000008152600401611017906127a6565b60405180910390fd5b600073ffffffffffffffffffffffffffffffffffffffff168273ffffffffffffffffffffffffffffffffffffffff161415611090576040517f08c379a000000000000000000000000000000000000000000000000000000000815260040161108790612666565b60405180910390fd5b61109b83838361149e565b6110a6600082610e13565b6001600360008573ffffffffffffffffffffffffffffffffffffffff1673ffffffffffffffffffffffffffffffffffffffff16815260200190815260200160002060008282546110f6919061299c565b925050819055506001600360008473ffffffffffffffffffffffffffffffffffffffff1673ffffffffffffffffffffffffffffffffffffffff168152602001908152602001600020600082825461114d9190612915565b92505081905550816002600083815260200190815260200160002060006101000a81548173ffffffffffffffffffffffffffffffffffffffff021916908373ffffffffffffffffffffffffffffffffffffffff160217905550808273ffffffffffffffffffffffffffffffffffffffff168473ffffffffffffffffffffffffffffffffffffffff167fddf252ad1be2c89b69c2b068fc378daa952ba7f163c4a11628f55a4df523b3ef60405160405180910390a4505050565b600081600001549050919050565b61122e8282604051806020016040528060008152506114a3565b5050565b61123b82610d9f565b61127a576040517f08c379a000000000000000000000000000000000000000000000000000000000815260040161127190612726565b60405180910390fd5b806006600084815260200190815260200160002090805190602001906112a1929190611a23565b505050565b6113408383836040516024016112be939291906125e8565b6040516020818303038152906040527fe3849f79000000000000000000000000000000000000000000000000000000007bffffffffffffffffffffffffffffffffffffffffffffffffffffffff19166020820180517bffffffffffffffffffffffffffffffffffffffffffffffffffffffff8381831617835250505050611475565b505050565b6001816000016000828254019250508190555050565b611366848484610faa565b611372848484846114fe565b6113b1576040517f08c379a00000000000000000000000000000000000000000000000000000000081526004016113a890612626565b60405180910390fd5b50505050565b606060405180602001604052806000815250905090565b60606113d982610d9f565b611418576040517f08c379a000000000000000000000000000000000000000000000000000000000815260040161140f906127c6565b60405180910390fd5b60006114226113b7565b90506000815111611442576040518060200160405280600081525061146d565b8061144c84611695565b60405160200161145d929190612520565b6040516020818303038152906040525b915050919050565b60008151905060006a636f6e736f6c652e6c6f679050602083016000808483855afa5050505050565b505050565b6114ad8383611842565b6114ba60008484846114fe565b6114f9576040517f08c379a00000000000000000000000000000000000000000000000000000000081526004016114f090612626565b60405180910390fd5b505050565b600061151f8473ffffffffffffffffffffffffffffffffffffffff16611a10565b15611688578373ffffffffffffffffffffffffffffffffffffffff1663150b7a02611548610e0b565b8786866040518563ffffffff1660e01b815260040161156a949392919061255f565b602060405180830381600087803b15801561158457600080fd5b505af19250505080156115b557506040513d601f19601f820116820180604052508101906115b29190611dcf565b60015b611638573d80600081146115e5576040519150601f19603f3d011682016040523d82523d6000602084013e6115ea565b606091505b50600081511415611630576040517f08c379a000000000000000000000000000000000000000000000000000000000815260040161162790612626565b60405180910390fd5b805181602001fd5b63150b7a0260e01b7bffffffffffffffffffffffffffffffffffffffffffffffffffffffff1916817bffffffffffffffffffffffffffffffffffffffffffffffffffffffff19161491505061168d565b600190505b949350505050565b606060008214156116dd576040518060400160405280600181526020017f3000000000000000000000000000000000000000000000000000000000000000815250905061183d565b600082905060005b6000821461170f5780806116f890612ab8565b915050600a82611708919061296b565b91506116e5565b60008167ffffffffffffffff811115611751577f4e487b7100000000000000000000000000000000000000000000000000000000600052604160045260246000fd5b6040519080825280601f01601f1916602001820160405280156117835781602001600182028036833780820191505090505b5090505b600085146118365760018261179c919061299c565b9150600a856117ab9190612b01565b60306117b79190612915565b60f81b8183815181106117f3577f4e487b7100000000000000000000000000000000000000000000000000000000600052603260045260246000fd5b60200101907effffffffffffffffffffffffffffffffffffffffffffffffffffffffffffff1916908160001a905350600a8561182f919061296b565b9450611787565b8093505050505b919050565b600073ffffffffffffffffffffffffffffffffffffffff168273ffffffffffffffffffffffffffffffffffffffff1614156118b2576040517f08c379a00000000000000000000000000000000000000000000000000000000081526004016118a990612746565b60405180910390fd5b6118bb81610d9f565b156118fb576040517f08c379a00000000000000000000000000000000000000000000000000000000081526004016118f290612646565b60405180910390fd5b6119076000838361149e565b6001600360008473ffffffffffffffffffffffffffffffffffffffff1673ffffffffffffffffffffffffffffffffffffffff16815260200190815260200160002060008282546119579190612915565b92505081905550816002600083815260200190815260200160002060006101000a81548173ffffffffffffffffffffffffffffffffffffffff021916908373ffffffffffffffffffffffffffffffffffffffff160217905550808273ffffffffffffffffffffffffffffffffffffffff16600073ffffffffffffffffffffffffffffffffffffffff167fddf252ad1be2c89b69c2b068fc378daa952ba7f163c4a11628f55a4df523b3ef60405160405180910390a45050565b600080823b905060008111915050919050565b828054611a2f90612a86565b90600052602060002090601f016020900481019282611a515760008555611a98565b82601f10611a6a57805160ff1916838001178555611a98565b82800160010185558215611a98579182015b82811115611a97578251825591602001919060010190611a7c565b5b509050611aa59190611aa9565b5090565b5b80821115611ac2576000816000905550600101611aaa565b5090565b6000611ad9611ad484612872565b612841565b905082815260208101848484011115611af157600080fd5b611afc848285612a44565b509392505050565b6000611b17611b12846128a2565b612841565b905082815260208101848484011115611b2f57600080fd5b611b3a848285612a44565b509392505050565b600081359050611b5181612bff565b92915050565b600081359050611b6681612c16565b92915050565b600081359050611b7b81612c2d565b92915050565b600081519050611b9081612c2d565b92915050565b600082601f830112611ba757600080fd5b8135611bb7848260208601611ac6565b91505092915050565b600082601f830112611bd157600080fd5b8135611be1848260208601611b04565b91505092915050565b600081359050611bf981612c44565b92915050565b600060208284031215611c1157600080fd5b6000611c1f84828501611b42565b91505092915050565b60008060408385031215611c3b57600080fd5b6000611c4985828601611b42565b9250506020611c5a85828601611b42565b9150509250929050565b600080600060608486031215611c7957600080fd5b6000611c8786828701611b42565b9350506020611c9886828701611b42565b9250506040611ca986828701611bea565b9150509250925092565b60008060008060808587031215611cc957600080fd5b6000611cd787828801611b42565b9450506020611ce887828801611b42565b9350506040611cf987828801611bea565b925050606085013567ffffffffffffffff811115611d1657600080fd5b611d2287828801611b96565b91505092959194509250565b60008060408385031215611d4157600080fd5b6000611d4f85828601611b42565b9250506020611d6085828601611b57565b9150509250929050565b60008060408385031215611d7d57600080fd5b6000611d8b85828601611b42565b9250506020611d9c85828601611bea565b9150509250929050565b600060208284031215611db857600080fd5b6000611dc684828501611b6c565b91505092915050565b600060208284031215611de157600080fd5b6000611def84828501611b81565b91505092915050565b600060208284031215611e0a57600080fd5b600082013567ffffffffffffffff811115611e2457600080fd5b611e3084828501611bc0565b91505092915050565b600060208284031215611e4b57600080fd5b6000611e5984828501611bea565b91505092915050565b611e6b816129d0565b82525050565b611e7a816129e2565b82525050565b6000611e8b826128d2565b611e9581856128e8565b9350611ea5818560208601612a53565b611eae81612bee565b840191505092915050565b6000611ec4826128dd565b611ece81856128f9565b9350611ede818560208601612a53565b611ee781612bee565b840191505092915050565b6000611efd826128dd565b611f07818561290a565b9350611f17818560208601612a53565b80840191505092915050565b6000611f306032836128f9565b91507f4552433732313a207472616e7366657220746f206e6f6e20455243373231526560008301527f63656976657220696d706c656d656e74657200000000000000000000000000006020830152604082019050919050565b6000611f96601c836128f9565b91507f4552433732313a20746f6b656e20616c7265616479206d696e746564000000006000830152602082019050919050565b6000611fd66024836128f9565b91507f4552433732313a207472616e7366657220746f20746865207a65726f2061646460008301527f72657373000000000000000000000000000000000000000000000000000000006020830152604082019050919050565b600061203c6019836128f9565b91507f4552433732313a20617070726f766520746f2063616c6c6572000000000000006000830152602082019050919050565b600061207c602c836128f9565b91507f4552433732313a206f70657261746f7220717565727920666f72206e6f6e657860008301527f697374656e7420746f6b656e00000000000000000000000000000000000000006020830152604082019050919050565b60006120e26038836128f9565b91507f4552433732313a20617070726f76652063616c6c6572206973206e6f74206f7760008301527f6e6572206e6f7220617070726f76656420666f7220616c6c00000000000000006020830152604082019050919050565b6000612148602a836128f9565b91507f4552433732313a2062616c616e636520717565727920666f7220746865207a6560008301527f726f2061646472657373000000000000000000000000000000000000000000006020830152604082019050919050565b60006121ae6029836128f9565b91507f4552433732313a206f776e657220717565727920666f72206e6f6e657869737460008301527f656e7420746f6b656e00000000000000000000000000000000000000000000006020830152604082019050919050565b6000612214602e836128f9565b91507f45524337323155524953746f726167653a2055524920736574206f66206e6f6e60008301527f6578697374656e7420746f6b656e0000000000000000000000000000000000006020830152604082019050919050565b600061227a6020836128f9565b91507f4552433732313a206d696e7420746f20746865207a65726f20616464726573736000830152602082019050919050565b60006122ba6031836128f9565b91507f45524337323155524953746f726167653a2055524920717565727920666f722060008301527f6e6f6e6578697374656e7420746f6b656e0000000000000000000000000000006020830152604082019050919050565b6000612320602c836128f9565b91507f4552433732313a20617070726f76656420717565727920666f72206e6f6e657860008301527f697374656e7420746f6b656e00000000000000000000000000000000000000006020830152604082019050919050565b60006123866029836128f9565b91507f4552433732313a207472616e73666572206f6620746f6b656e2074686174206960008301527f73206e6f74206f776e00000000000000000000000000000000000000000000006020830152604082019050919050565b60006123ec602f836128f9565b91507f4552433732314d657461646174613a2055524920717565727920666f72206e6f60008301527f6e6578697374656e7420746f6b656e00000000000000000000000000000000006020830152604082019050919050565b60006124526021836128f9565b91507f4552433732313a20617070726f76616c20746f2063757272656e74206f776e6560008301527f72000000000000000000000000000000000000000000000000000000000000006020830152604082019050919050565b60006124b86031836128f9565b91507f4552433732313a207472616e736665722063616c6c6572206973206e6f74206f60008301527f776e6572206e6f7220617070726f7665640000000000000000000000000000006020830152604082019050919050565b61251a81612a3a565b82525050565b600061252c8285611ef2565b91506125388284611ef2565b91508190509392505050565b60006020820190506125596000830184611e62565b92915050565b60006080820190506125746000830187611e62565b6125816020830186611e62565b61258e6040830185612511565b81810360608301526125a08184611e80565b905095945050505050565b60006020820190506125c06000830184611e71565b92915050565b600060208201905081810360008301526125e08184611eb9565b905092915050565b600060608201905081810360008301526126028186611eb9565b90506126116020830185612511565b61261e6040830184611e62565b949350505050565b6000602082019050818103600083015261263f81611f23565b9050919050565b6000602082019050818103600083015261265f81611f89565b9050919050565b6000602082019050818103600083015261267f81611fc9565b9050919050565b6000602082019050818103600083015261269f8161202f565b9050919050565b600060208201905081810360008301526126bf8161206f565b9050919050565b600060208201905081810360008301526126df816120d5565b9050919050565b600060208201905081810360008301526126ff8161213b565b9050919050565b6000602082019050818103600083015261271f816121a1565b9050919050565b6000602082019050818103600083015261273f81612207565b9050919050565b6000602082019050818103600083015261275f8161226d565b9050919050565b6000602082019050818103600083015261277f816122ad565b9050919050565b6000602082019050818103600083015261279f81612313565b9050919050565b600060208201905081810360008301526127bf81612379565b9050919050565b600060208201905081810360008301526127df816123df565b9050919050565b600060208201905081810360008301526127ff81612445565b9050919050565b6000602082019050818103600083015261281f816124ab565b9050919050565b600060208201905061283b6000830184612511565b92915050565b6000604051905081810181811067ffffffffffffffff8211171561286857612867612bbf565b5b8060405250919050565b600067ffffffffffffffff82111561288d5761288c612bbf565b5b601f19601f8301169050602081019050919050565b600067ffffffffffffffff8211156128bd576128bc612bbf565b5b601f19601f8301169050602081019050919050565b600081519050919050565b600081519050919050565b600082825260208201905092915050565b600082825260208201905092915050565b600081905092915050565b600061292082612a3a565b915061292b83612a3a565b9250827fffffffffffffffffffffffffffffffffffffffffffffffffffffffffffffffff038211156129605761295f612b32565b5b828201905092915050565b600061297682612a3a565b915061298183612a3a565b92508261299157612990612b61565b5b828204905092915050565b60006129a782612a3a565b91506129b283612a3a565b9250828210156129c5576129c4612b32565b5b828203905092915050565b60006129db82612a1a565b9050919050565b60008115159050919050565b60007fffffffff0000000000000000000000000000000000000000000000000000000082169050919050565b600073ffffffffffffffffffffffffffffffffffffffff82169050919050565b6000819050919050565b82818337600083830152505050565b60005b83811015612a71578082015181840152602081019050612a56565b83811115612a80576000848401525b50505050565b60006002820490506001821680612a9e57607f821691505b60208210811415612ab257612ab1612b90565b5b50919050565b6000612ac382612a3a565b91507fffffffffffffffffffffffffffffffffffffffffffffffffffffffffffffffff821415612af657612af5612b32565b5b600182019050919050565b6000612b0c82612a3a565b9150612b1783612a3a565b925082612b2757612b26612b61565b5b828206905092915050565b7f4e487b7100000000000000000000000000000000000000000000000000000000600052601160045260246000fd5b7f4e487b7100000000000000000000000000000000000000000000000000000000600052601260045260246000fd5b7f4e487b7100000000000000000000000000000000000000000000000000000000600052602260045260246000fd5b7f4e487b7100000000000000000000000000000000000000000000000000000000600052604160045260246000fd5b6000601f19601f8301169050919050565b612c08816129d0565b8114612c1357600080fd5b50565b612c1f816129e2565b8114612c2a57600080fd5b50565b612c36816129ee565b8114612c4157600080fd5b50565b612c4d81612a3a565b8114612c5857600080fd5b5056fe416e204e465420772f20494420257320686173206265656e206d696e74656420746f202573a2646970667358221220d6a950d92f5f4aec84f3db45e91be60f617c5240e77b75d7ebc84e01b281931c64736f6c63430008000033",
  "linkReferences": {},
  "deployedLinkReferences": {}
}